:020000040800F2
:10000000804A0020B90200081F3400088D2500082E
:100010001D340008E10600081D380008000000003B
:1000200000000000000000000000000021020008A5
:100030009D07000800000000650200085134000818
:10004000D3020008D3020008D3020008D30200083C
:10005000D3020008D3020008D3020008D30200082C
:10006000D3020008D3020008D3020008D30200081C
:10007000E5060008F1060008D3020008FD060008A6
:1000800009070008D30200089D050008D3020008F4
:10009000D3020008D3020008D3020008D3020008EC
:1000A000D3020008E9340008D3020008D302000894
:1000B000D3020008D3020008D30200089D250008DF
:1000C00091250008B5250008A9250008D3020008DD
:1000D000D3020008D3020008D9370008E53700082A
:1000E000D3020008D3020008D3020008D30200089C
:1000F000D3020008D3020008D3020008D30200088C
:10010000D3020008D3020008D3020008D30200087B
:10011000D3020008D3020008D3020008D30200086B
:1001200015070008D3020008D3020008D302000814
:10013000D30200080000000000000000D302000805
:10014000D3020008D3020008D3020008D30200083B
:10015000D3020008D3020008D3020008D30200082B
:10016000CD250008C1250008D3020008D3020008ED
:10017000D3020008D30200080000000000000000C5
:10018000D302000800F002F800F03AF80AA090E864
:10019000000C82448344AAF10107DA4501D100F042
:1001A0002FF8AFF2090EBAE80F0013F0010F18BFD5
:1001B000FB1A43F001031847684800008848000014
:1001C000103A24BF78C878C1FAD8520724BF30C883
:1001D00030C144BF04680C60704700000023002455
:1001E00000250026103A28BF78C1FBD8520728BF47
:1001F00030C148BF0B6070471FB51FBD10B510BDA3
:1002000000F092F91146FFF7F7FF03F018FB00F03A
:10021000B0F903B4FFF7F2FF03BC00F0B7F9000038
:10022000224B19680868B0E8F00F80F30988BFF323
:100230006F8F4FF0000080F311884EF00D0E704765
:100240000000000006480068006880F3088862B675
:1002500061B6BFF34F8FBFF36F8F00DF00BF00BFEA
:1002600008ED00E0EFF30980BFF36F8F0F4B1A68C2
:1002700020E9F00F106008B54FF0500080F31188AE
:10028000BFF34F8FBFF36F8F03F040FF4FF00000BD
:1002900080F31188BDE8084019680868B0E8F00FDD
:1002A00080F30988BFF36F8F704700BF50000020B4
:1002B000EFF3058070470000094880470948004770
:1002C000FEE7FEE7FEE7FEE7FEE7FEE7FEE7FEE706
:1002D000FEE7FEE704480549054A064B7047000063
:1002E000E73400088501000880440020804A00208F
:1002F000804600208046002053EA020C00F069800E
:100300002DE9F04B4FF00006002B1FBFB3FA83F529
:1003100003FA05F424FA05F65E4012BF1643B2FA5A
:1003200082F502FA05F4C5F120051EBF22FA05FC8C
:1003300044EA0C04203556EA044C4FEA144418BF32
:10034000641C4FF000084FF00009904271EB030C61
:1003500039D3002919BFB1FA81F701FA07F6B0FACB
:1003600080F700FA07F6C7F120071EBF20FA07FC46
:1003700046EA0C062037B6FBF4FCA7EB0507103F56
:1003800007F01F0BCBF120060CFA0BFB2CFA06F63C
:1003900044BFB3460026202FA4BF5E464FF0000B9B
:1003A0005BEA060C08BF4FF0010B19EB0B09ABFB26
:1003B000027C48EB0608C01B06FB02CC0BFB03CCFF
:1003C00071EB0C01C1E70B46024641464846BDE8C9
:1003D000F08B13B54FF000004FF00001AFF3008039
:1003E000BDE81C407047032A40F2308010F0030C37
:1003F00000F0158011F8013BBCF1020F624498BF78
:1004000011F801CB00F8013B38BF11F8013BA2F114
:10041000040298BF00F801CB38BF00F8013B11F08F
:10042000030300F02580083AC0F0088051F8043B2F
:10043000083A51F804CBA0E80810F5E7121D5CBF9C
:1004400051F8043B40F8043BAFF30080D20724BFCF
:1004500011F8013B11F801CB48BF11F8012B24BF63
:1004600000F8013B00F801CB48BF00F8012B7047B2
:1004700010B5203AC0F00B80B1E81850203AA0E83F
:100480001850B1E81850A0E81850BFF4F5AF5FEA73
:10049000027C24BFB1E81850A0E8185044BF18C926
:1004A00018C0BDE810405FEA827C24BF51F8043BCD
:1004B00040F8043B08BF7047D20728BF31F8023B21
:1004C00048BF11F8012B28BF20F8023B48BF00F8B5
:1004D000012B70474FF0000200B513469446964634
:1004E000203922BFA0E80C50A0E80C50B1F1200147
:1004F000BFF4F7AF090728BFA0E80C5048BF0CC0F5
:100500005DF804EB890028BF40F8042B08BF704752
:1005100048BF20F8022B11F0804F18BF00F8012BC4
:100520007047704770477047754600F02BF8AE462D
:1005300005006946534620F00700854618B020B5EF
:10054000FFF7C8FEBDE820404FF000064FF000075F
:100550004FF000084FF0000B21F00701AC46ACE86B
:10056000C009ACE8C009ACE8C009ACE8C0098D46D8
:10057000704710B50446AFF300802046BDE8104038
:10058000FFF747BE0048704720440020014918206B
:10059000ABBEFEE72600020070470000014800F0F5
:1005A000CFB90000240300204B4910B5D1F8042333
:1005B00022F44032C1F80423D1F8042343681A43DB
:1005C000C1F8042301684A6822F480724A60016815
:1005D0004A68036942EA03224A6001684A6822F0D5
:1005E00040724A6001684A6883681A434A60016839
:1005F0008A6822F400628A6001688A68C3681A43C4
:100600008A60816A6FF07062D14201688A6822F064
:1006100070628A6001688A680CD0836A1A438A60B3
:1006200001688A6822F040528A6001688A68C36A59
:100630001A4301E022F040528A6001688A6822F081
:1006400002028A6001688A68037E42EA43028A6085
:1006500090F82010002901684A6815D042F4006221
:100660004A6001684A6822F460424A6001684B6847
:100670004FF46044426A94FAA4F4B4FA84F4521E2B
:10068000A24013434B6002E022F400624A6001681A
:10069000CA6A22F47002CA620168CA6A838B0F4C6C
:1006A00004EB03531A43CA6201688A6822F4007299
:1006B0008A6001688A6890F8303042EA43228A6092
:1006C00001688A6822F480628A6001688A684069E9
:1006D00042EA8020886010BD002001400000F0FF49
:1006E000FEE70000014800F0CDBA00007C060020C3
:1006F000014800F0C7BA0000C8040020014800F01B
:10070000C1BA000028050020014800F0BBBA000073
:100710001C060020014800F0B5BA00006C03002060
:1007200001681823CAB2103AB2FBF3F2054B6FF31B
:100730000901032A9B5CC36500D9091D8165084630
:1007400070470000B849000810B5014600208B69C9
:100750008A6A4FF0C07453B1B3F5005F15D072B11F
:10076000012A0CD0022A0AD0032A09D104E01AB1C6
:10077000012A06D0022A03D1C96AC90100D5012085
:1007800010BDC96AA142FAD010BD002AF7D0012AD3
:10079000F2D0022AF3D0032AF3D010BD704772B60C
:1007A000FEE70022AFF3008030B50E4B0546012076
:1007B0005C7A012C15D8587A00241C54587A03EB23
:1007C000800045605D7A03F108002A54587A421C83
:1007D0005A72303008703A2048702F208870CC70E0
:1007E000002030BD144400207047000078B500247C
:1007F000009490F83C20012A19D0012280F83C2076
:100800000A6807230568092A13D9EE680A3A02EB39
:10081000420293409E43EE600B788A680A3B03EBEA
:1008200043039A400368DD682A43DA6010E002203F
:1008300078BD2E6902EB420293409E432E610A78F6
:100840008B6802EB42029340026815692B431361E7
:100850004A681F23072A13D205686E6B521E02EBEB
:10086000820293409E436E630B790A885B1E92B2AC
:1008700003EB83039A4003685D6B2A435A6327E0C6
:1008800005680D2A12D22E6BD21F02EB8202934012
:100890009E432E630B790A88DB1F92B203EB83031E
:1008A0009A4003681D6B2A431A6311E0EE6A0D3A01
:1008B00002EB820293409E43EE620B790A880D3B65
:1008C00092B203EB83039A400368DD6A2A43DA623B
:1008D000174A0368934208D10B68122B05D1D2F84E
:1008E000043343F48003C2F80433036893421AD1FB
:1008F0000B68102B01D0112B15D1D2F8043343F41F
:100900000003C2F80433096810290CD109490A4AC6
:100910000968B1FBF2F101EB8101490000E0491ED9
:1009200000910029FBD180F83C40002078BD0000F8
:10093000002001404C00002040420F0070477047EB
:1009400070B50446006801684268C1F34001C2F313
:10095000401251B34AB3216CC90603D4216C41F44F
:1009600000712164816811F0405F17D1217EA9B91F
:10097000C16A11F4700F02D0816849050ED4416834
:1009800021F020014160206C20F480702064206CF4
:10099000C00403D4206C40F0010020642046FFF71F
:1009A000CDFF21686FF0120008602068016842687E
:1009B000C1F38001C2F3C01289B382B3216CC906AE
:1009C00003D4216C41F400512164816811F4401F6B
:1009D0001ED1816B11F4401F02D08168490517D4E4
:1009E0004168490514D4816811F0405F10D1217E1F
:1009F00071B9416821F080014160206C20F4805081
:100A00002064206CC00503D4206C40F001002064F9
:100A10002046FFF7E9FE21686FF00C0008602068AF
:100A20000168426811F0010FC2F380120ED06AB162
:100A30000068C0070AD0206C40F480302064204653
:100A400000F046F821686FF0010008602068016836
:100A50004268C1F34011C2F3806200290DD0002A20
:100A60000BD0616C41F0020161646FF020050560FC
:100A70002046FFF764FF2068056070BD70B5040074
:100A80004FF0000503D0206C002610B107E00120D4
:100A900070BD204600F01EF8666484F83C60206C4F
:100AA000C00610D4206C20F4885040F0020020646E
:100AB0002046FFF779FD6664206C20F0020040F0CC
:100AC0000100206400E0012584F83C60284670BDE8
:100AD0007047000070B586B0064614216846FFF7DF
:100AE000F9FC2149306888423CD120480025016842
:100AF00041F480710160006800F4807005901B482B
:100B00001438016841F0010101600068694600F095
:100B100001000590732000900320CDE901051448E1
:100B200000F0EAF9144C1348C4E900050015A5606B
:100B3000C4E90350400060618000A0614011C4E935
:100B400007052046656200F06DF908B1FFF727FE42
:100B5000B463002205211220A66300F015FF1220C5
:100B600000F004FF06B070BD002001404438024090
:100B700000000240106402406C03002010B5040025
:100B800002D0607910B106E0012010BD0020207174
:100B9000204600F005F801206071002010BD000023
:100BA00008B500680649884208D10648016841F442
:100BB00080510160006800F48050009008BD000082
:100BC00000300240303802402DE9F0410446876D84
:100BD00000F0DCFA064694F835000025022806D01D
:100BE0008020606584F834500120BDE8F0812068E1
:100BF000016821F0160101602068416921F080013F
:100C00004161206C08B9A06C20B12068016821F016
:100C1000080101602068016821F0010101600CE019
:100C200000F0B4FA801B052807D920206065032056
:100C300084F8350084F83450D7E720680068C0078E
:100C4000EED194F85C103F208840B860012084F811
:100C5000350084F834500020C7E790F83510022999
:100C600003D08021416501207047052180F83510AF
:100C70000068016821F0010101600020704790F8D0
:100C8000350070472DE9F84304464FF00009CDF8D0
:100C9000009063484FF41651A56D0068B0FBF1F762
:100CA0002E6894F85C10082000FA01F131420FD050
:100CB00021680A6852070BD50A6822F004020A600C
:100CC00094F85C108840A860606D40F00100606599
:100CD00094F85C104FF0010808FA01F0304208D097
:100CE00021684969090604D5A860606D40F00200DA
:100CF000606594F85C1004208840304208D0216878
:100D00000968890704D5A860606D40F0040060653B
:100D100094F85C1010208840304218D0216809688F
:100D2000090714D5A86020680168490304D5006844
:100D3000000308D5A16C07E00168C90503D4016868
:100D400021F008010160216C09B12046884794F820
:100D50005C1020208840304231D021680968C906E3
:100D60002DD5A86094F8350005282068016806D0C4
:100D7000490347D5006800031DD4616C1CE021F0D5
:100D8000160101602068416921F080014161206CF9
:100D900008B9A06C20B12068016821F00801016049
:100DA00094F85C103F208840A86084F8358084F86F
:100DB0003490216D1FE0E16B09B120468847606DDA
:100DC00000282BD0606DC00714D0052084F83500B2
:100DD0002068016821F0010101600098401C00902A
:100DE000B84203D820680068C007F6D184F835807F
:100DF00084F83490E16C002910D001B02046BDE8A1
:100E0000F04308470168C905D5D4016821F01001F5
:100E1000016084F8358084F83490CCE7BDE8F8832D
:100E20004C0000202DE9F041044600F0AFF90646E1
:100E30005CB1022084F83500002584F83450206825
:100E4000016821F0010101600DE00120BDE8F081A1
:100E500000F09CF9801B052805D92020606503203F
:100E600084F83500F2E720680068C007F0D12268F6
:100E7000116820480140D4E901031843D4E903363E
:100E80003343184363691843A3691843E36918435C
:100E9000236A18430843616A042903D1D4E90B1378
:100EA00019430843106020684069666A20F0070112
:100EB00030460E43012704280CD1A06A0643E06A9D
:100EC00040B12046FFF740FC20B14020606584F827
:100ED0003570BAE7206846612046FFF721FC94F898
:100EE0005C203F2191408160656584F83570002069
:100EF000ACE700003F8010F02DE9F04FDFF8509292
:100F0000002309F1040A012603250AF1040B85B028
:100F10000F270BF1040E12E1224606FA03F42240D9
:100F20007ED091F804C00CF0030CBCF1010F02D08C
:100F3000BCF1020F26D1D0F80880CDF800804FEA2E
:100F4000430805FA08FCCDF81080DDF8008028EA97
:100F50000C08CDF80080D1F80CC0DDF810800CFA38
:100F600008FCDDF800804CEA080CC0F808C0D0F896
:100F700004C02CEA040C0C79C4F300149C4044EA2D
:100F80000C0444600C79E443A40712D0C4684FEA0F
:100F9000430CCDF808C005FA0CFC24EA0C04D1F887
:100FA0000880DDF808C008FA0CF848EA0408C0F820
:100FB0000C800C7904F00304022C16D1DC0800EB41
:100FC000840CCDF808C0DCF820C05C074FEAD46878
:100FD00007FA08F42CEA040C0C6904FA08F444EA51
:100FE0000C04DDF808C0CCF8204004684FEA430840
:100FF00005FA08FC24EA0C0491F804C00CF0030C78
:101000000CFA08FC4CEA040CC0F800C04C6814F45C
:10101000403F05D04F4CD4F800C04CF4804C00E069
:101020008CE0C4F800C0246823F0030C04F480446E
:101030000094494C64440294D4F808484FEA837CF5
:101040004FEA1C7807FA08FC24EA0C04DFF80CC10C
:10105000604502D14FF0000C39E0DFF804C1604573
:1010600002D14FF0010C32E0DFF8F8C0604502D148
:101070004FF0020C2BE0DFF8F0C0604502D14FF0DA
:10108000030C24E0DFF8E4C0604502D14FF0040C0B
:101090001DE0DFF8DCC0604502D14FF0050C16E022
:1010A000DFF8D0C0604502D14FF0060C0FE0DFF84A
:1010B000C8C0604502D14FF0070C08E0DFF8BCC0A3
:1010C000604502D14FF0080C01E04FF0090C0CFA1A
:1010D00008FC4CEA040C029CC4F808C8D9F800408B
:1010E000CC46D1F8048094435FEAC83800D5144355
:1010F000CCF80040DAF80040D446D1F8048094439C
:101100005FEA883800D51443CCF80040DBF8004093
:10111000DC46D1F8048094435FEAC82800D5144324
:10112000CCF80040DEF80040F446D1F80480944347
:101130005FEA882800D51443CCF800405B1C0A689D
:101140001446DA407FF4E8AE05B0BDE8F08F000049
:10115000003C0140443802400030014000000240A1
:101160000004024000080240000C0240001002404F
:101170000014024000180240001C024000200240FF
:101180000AB1816170470904FBE7000001488068EB
:101190007047000040000020704770472DE9F04183
:1011A000016804464A694E6890F83E000025D7431E
:1011B000FA0506D4F243D20503D46FF480720125F8
:1011C0004A61B90508D4F143C90505D422686FF412
:1011D000007145F002055161790525D4F143C90537
:1011E00022D4638D94F83D10226B202808D13BB99E
:1011F000212910D029290ED0282901D1212A0AD04D
:1012000022686FF48061516145F00405102806D012
:10121000402804D008E0204601F0AAFD04E0206840
:10122000016841F400710160380508D4F043C0053D
:1012300005D421686FF4006045F008054861002D71
:1012400007D0206C284320642046BDE8F04101F01F
:1012500021BABDE8F0812DE9F0470268002153680A
:10126000C66A90F83E4090F83D50102C12D0402CA9
:1012700010D0046C002C7DD05469E443A6077AD4C6
:10128000DE43B60577D4036C03B19169BDE8F0473E
:1012900001F04ABD976951694FF42A0CC9435FEACE
:1012A000C1784FF02A4904D066452AD04E4528D04F
:1012B00010E0DE43B6050DD4C16A614501D10121BC
:1012C00003E0C16A494501D10821C162BDE8F04788
:1012D00001F094BC0E0716D4DE43B60513D4416C5E
:1012E000C9B21161416B09B1C96B29B9816B002980
:1012F00007D0C96B002904D00068416841F400613F
:101300004160BDE8F0878E0706D4DE43B60503D4FE
:10131000BDE8F04701F0E6BBFE43526876074FEAAE
:1013200002521DD4002AECDB0A0608D4DA43520527
:1013300005D4490705D5BDE8F04701F077BB49075B
:10134000DFD4D9438905DCD4212D05D0402CD8D158
:10135000BDE8F04701F098BCBDE8F04701F024BBC0
:10136000002ACEDB4A060BD4DA43520508D44907DB
:1013700008D501E00DE00EE0BDE8F04701F0A0BAAD
:101380004907BED4D9438905BBD4BDE8F04701F075
:101390002DBA916970E7E10606D4D943890503D4D3
:1013A000BDE8F04701F026BD2821212D27D0292DA9
:1013B00025D0650655D4DD436D0552D4640752D55A
:1013C00090F83D30448D002C9BD01269446A227005
:1013D000426A521C4262428D521E4285428D002A50
:1013E0008FD12A2B8DD10268536823F48063536018
:1013F0002222026380F83D1000F010FA81E72506F2
:1014000023D4DD436D0520D4640720D590F83D300A
:10141000448D002CF2D0446A24781461426A521C34
:101420004262428D521E4285428D002AE6D1292B0E
:10143000E4D10268536823F480635360212202637D
:1014400080F83D1000F0EBF95BE76107D6D4D94393
:101450008905D3D4418D0029D0D0416A0978116122
:101460000AE06107CAD4D9438905C7D4418D002950
:10147000C4D01169426A1170416A491C4162418DB0
:10148000491E41853DE7704770B5040025D094F8AA
:101490003D00002520B984F83C50204600F0BEF8FD
:1014A000242084F83D002068016821F001010160DA
:1014B0002068016841F4004101602068016821F45E
:1014C0000041016000F050FB4D4A6168914201D833
:1014D0004C4900E04C49884201D2012070BD4B4983
:1014E0002368B0FBF1F15E6826F03F060E435E60B4
:1014F0006368934206D94FF4967359434FF47A7355
:10150000B1FBF3F12368491C1E6A26F03F06314304
:1015100019626168914210D84900401EB0FBF1F297
:10152000521CC2F30B02042A01D2042022E0B0FBB9
:10153000F1F0401CC0F30B001CE0A268F2B301EB19
:10154000C10303EB0116431EB3FBF6F35B1C43F42C
:1015500080431B0549D092B301EBC10202EB01119C
:10156000401EB0FBF1F0401CC0F30B0040F4804083
:1015700040F400402168CA694CF6FF739A43104357
:10158000C861D4E9071001432068026822F0C00254
:1015900011430160D4E9030101432068826848F2E5
:1015A000FF339A4311438160D4E905010843216860
:1015B000CA6822F0FF021043C86001E00EE016E0A6
:1015C0002068016841F0010101602564202084F851
:1015D0003D00256384F83E50002070BD01EB4106BC
:1015E000431EB3FBF6F35B1CB3E70120C2E701EB3C
:1015F0004101401EB0FBF1F0401CC0F30B00B7E707
:10160000A086010080841E0000093D0040420F00BA
:101610007047704770477047704700002DE9F047EA
:1016200086B0064614216846FEF754FF734DDFF876
:10163000C881D6F800C07148122301270321042273
:101640006F4C10354FF00009C44527D1066846F0AD
:1016500002060660006800F002000590CDE9031262
:10166000C0208DE8890069462046FFF745FC2868C0
:1016700040F4001028602868002200F40010059053
:1016800005211F2000F080F91F2000F06FF90022D3
:101690000521202000F078F920202BE0DFF864817C
:1016A000C4452CD1066846F002060660006800F0CA
:1016B00002000590CDE903124FF440608DE88900E7
:1016C00069462046FFF718FC286840F4800028602F
:1016D0002868002200F4800005900521212000F0F8
:1016E00053F9212000F042F900220521222000F0C8
:1016F0004BF9222000F03AF906B0BDE8F087424CE1
:10170000A445F9D1D0F800C04C464CF0040CC0F808
:1017100000C0D0F800C00CF0040CCDF814C0D0F814
:1017200000C04CF0010CC0F800C00068884600F012
:10173000010005904FF40070CDE900030DF1080C95
:1017400092468CE88005994669463048FFF7D4FBFD
:101750004FF48070CDE900090DF1080C69468CE862
:1017600080052B48FFF7C8FB286840F4000028607C
:101770002868294D00F400000590264828604FF0A5
:10178000C067C5E901744FF48068C5E903486C611E
:10179000AC61EC612C6228466C62FFF743FB08B138
:1017A000FEF7FDFFB563AE631B4D1A486035303060
:1017B000E5E802074020A5E81101174845F814495B
:1017C0006030AC61EC612C626C62FFF72BFB08B1FE
:1017D000FEF7E5FF7563002205214820AE6300F0A7
:1017E000D3F8482000F0C2F800220521492000F07B
:1017F000CBF849207EE7000000540040303802401A
:101800000004024000580040005C00400008024014
:101810000000024040600240C8040020704770474A
:1018200070B5040011D021684CF6CC4008602168E6
:1018300045F255500860D4E9000141602168A06874
:101840008860FFF7A3FC05460DE0012070BD00BFD6
:10185000FFF79CFC401B312805D92068C068800731
:1018600001D0032070BD2068C0688007F0D12168D6
:101870004AF6AA200860002070BD00000248816876
:101880000278114481607047400000200B4810B579
:10189000016841F400710160016841F480610160F8
:1018A000016841F480710160032000F08DF80F2081
:1018B00000F006F800F03EF8002010BD003C0240A9
:1018C00010B5014688B00022192000F05DF81920FB
:1018D00000F04CF813480024016841F00101016058
:1018E000006805A900F001000690684600F01CF9A8
:1018F00000F052F90C494000B0FBF1F10C480B4AE2
:10190000491E026040F2E732C0E90324C0E9011435
:1019100000F028FB10B1012008B010BD044800F011
:101920004FFBF9E74438024040420F0000000140FD
:10193000DC0600200C4882B0016841F4804101605F
:10194000006800F4804000900748001F016841F0E3
:10195000805101600068002200F0805000900F214B
:10196000901E02B000F010B844380240002809DB95
:1019700000F01F02012191404009800000F1E020A9
:10198000C0F8001170470000F0B40E4B1B680C4605
:10199000C3F30223C3F10705042D00D90425191D43
:1019A000072901D2002300E0DB1E012606FA05F11B
:1019B000491E214099409E40761E16403143F0BC9E
:1019C00001F02DBF0CED00E0064900F007020868A9
:1019D0004FF6FF03184040EA0220034A1043086014
:1019E000704700000CED00E00000FA052DE9F0471B
:1019F0000E46050063D0DFF81C81D8F80000F7B26E
:101A000000F00F00B04207D288F80070D8F800004C
:101A100000F00F00B04252D128683F4C810712D528
:101A2000400703D5206840F4E05020602878000784
:101A300003D5206840F4604020602068A96820F049
:101A4000F000084320602878C0072BD0324968682E
:101A50000839012810D00968022810D08907002908
:101A60002DDA216821F0030101432160FFF78EFB8D
:101A7000814641F2883A0EE009688903EFE789015F
:101A8000EDE700BFFFF782FBA0EB0901514502D94A
:101A90000320BDE8F0872068696800F00C00B0EB17
:101AA000810FEFD1D8F80010404601F00F01B1428C
:101AB00007D90770006800F00F00B04201D0012084
:101AC000E7E72878400705D52068E96820F4E0506A
:101AD000084320602878000706D52068296920F48B
:101AE000604040EAC100206000F06EF82168F022FA
:101AF00092FAA2F201F0F001B2FA82F2D140074A62
:101B0000515CC8400649086006480068FFF7D8FEE7
:101B10000020BEE7003C024008380240C0490008EF
:101B20004C000020440000200F2202600C4A136881
:101B300003F003034360136803F0F003836013684A
:101B400003F4E053C36012684FF4E05303EAD20297
:101B500002610448006800F00F0008607047000050
:101B600008380240003C02400848094900680968FA
:101B70004FF4E05292FAA2F201F4E051B2FA82F28A
:101B8000D140044A515CC840704700004C0000201E
:101B900008380240D0490008084809490068096827
:101BA0004FF4604292FAA2F201F46041B2FA82F27A
:101BB000D140044A515CC840704700004C000020EE
:101BC00008380240D0490008154810B5006810F0E8
:101BD0000C02144813D04110042A0FD0082A0ED149
:101BE0000F4C241F2268236802F03F025B0207D5D6
:101BF0002068C0F38810A0FB010106E0084610BD74
:101C00002168C1F38811A1FB00010023FEF774FBDA
:101C10002168C1F30141491C4900B0FBF1F010BD3E
:101C2000083802400024F4002DE9F84F04007BD06E
:101C3000DFF814B32078ABF10406C007A6F1040561
:101C400036D0DBF800105846C1F38101012907D0D6
:101C50000068C0F38100022809D13068400206D52F
:101C60002868800324D560680028E0D020E0B649C9
:101C70002079891F0870606868B1FFF787FA074606
:101C800005E000BFFFF782FAC01B642876D82868F9
:101C90008003F7D50CE0FFF779FA074605E000BFAF
:101CA000FFF774FAC01B6428F0D828688003F7D4C3
:101CB0002078DFF8988280074FF0000944D5DBF8E0
:101CC0000010584611F00C0F4FF0F80A07D00068CA
:101CD000C0F38100022809D13068400206D4286888
:101CE000800715D5E06801281ED111E0E068E0B159
:101CF0000120C8F80000FFF749FA074605E000BFD9
:101D0000FFF744FAC01B0228C0D828688007F7D51F
:101D100028689AFAAAF22169B2FA82F220F0F80051
:101D20009140084328600FE00AE1C8F80090FFF7EF
:101D30002DFA074605E000BFFFF728FAC01B02286E
:101D40001CD828688007F7D42078000727D5DFF84B
:101D5000F8A17F4861690AF16C0A81B10121016033
:101D6000FFF714FA074604E0FFF710FAC01B022839
:101D700004D8DAF800008007F6D510E082E0C0F859
:101D80000090FFF703FA074605E000BFFFF7FEF9F2
:101D9000C01B022876D8DAF800008007F6D4207835
:101DA00040075FD5DFF8A0A100270AF1380ADAF86A
:101DB0000000C0000BD4DAF8001041F08051CAF8DE
:101DC0000010DAF80000012700F080500090614810
:101DD000016841F4807101600168C90512D401688D
:101DE00041F480710160FFF7D1F9009006E000BF77
:101DF000FFF7CCF90099401A02287ED855480068B0
:101E0000C005F5D55049207A68310870A06888B1BE
:101E1000FFF7BCF9009007E0FFF7B8F90099411A05
:101E200041F28830814268D84748683000688007AE
:101E3000F2D510E0FFF7AAF9009007E0FFF7A6F946
:101E40000099411A41F28830814256D83E486830A4
:101E500000688007F2D42FB1DAF8001021F0805129
:101E6000CAF80010A069B8B3DBF80010C1F3810113
:101E7000022949D00228C8F8609004D0FFF786F9FB
:101E800004463DE039E0FFF781F9074605E000BF71
:101E9000FFF77CF9C01B64282FD828688001F7D48D
:101EA000D4E907010843616A94F82C20890141EACA
:101EB00002610843A16A284A490802EB014108432C
:101EC0003168264A1140084330600120C8F860009C
:101ED000FFF75CF9044606E034E000BFFFF756F96F
:101EE000001B642809D828688001F7D52AE000BFC4
:101EF000FFF74CF9001B642802D90320BDE8F88FD6
:101F000028688001F4D41DE00128F7D03068E26928
:101F100000F48001914213D1226A00F03F01914206
:101F20000ED1616AC0F38812914209D1A26A00F40D
:101F30004031914204D1E16A00F07060884201D0E2
:101F40000120DBE70020D9E70838024000004742C3
:101F5000800E4742007000400000FFFF0080BCF090
:101F60007047704710B5040003D094F83D0010B1DD
:101F700007E0012010BD002084F83C00204600F05E
:101F80001EF8022084F83D00211D206801F0B2FAFD
:101F9000012084F8460084F83E0084F83F0084F86D
:101FA000400084F8410084F8420084F8430084F83B
:101FB000440084F8450084F83D00002010BD7047BF
:101FC00090F83D10012901D001207047022180F8CE
:101FD0003D100168CA6842F00102CA6000681149F8
:101FE000884214D0B0F1804F11D00F4988420ED0F2
:101FF0000E4988420BD00E49884208D00D498842CC
:1020000005D00D49884202D00C49884204D181682C
:1020100001F00701062903D0016841F001010160C8
:10202000002070470000014000040040000800400C
:10203000000C004000040140004001400018004036
:10204000704770B50446006801694FF00005C94348
:10205000890715D4C168C943890711D4E91E0161F4
:1020600001202077206880698007204602D0FFF792
:10207000E7FF04E000F098F8204600F096F8257796
:1020800020680169C943490717D4C168C943490792
:1020900013D46FF004010161022020772068806969
:1020A00010F4407F204602D0FFF7CAFF04E000F0A2
:1020B0007BF8204600F079F8257720680169C9434C
:1020C000090716D4C168C943090712D46FF0080183
:1020D0000161042020772068C0698007204602D073
:1020E000FFF7AEFF04E000F05FF8204600F05DF877
:1020F000257720680169C943C90617D4C168C94357
:10210000C90613D46FF01001016108202077206800
:10211000C06910F4407F204602D0FFF791FF04E031
:1021200000F042F8204600F040F825772068016969
:10213000C943C90708D1C168C943C90704D1891E69
:102140000161204600F032F820680169C9430906A0
:1021500009D4C168C943090605D46FF08001016143
:102160002046FFF7FDFE20680169C943490609D4EE
:10217000C168C943490605D46FF04001016120469A
:1021800000F01EF820680169C94389060BD4C168B4
:10219000C943890607D46FF0200101612046BDE8DC
:1021A0007040FFF7DEBE70BD70477047006803499E
:1021B000884201D1FFF762BB704700000000014078
:1021C0007047704770470000F8B502680446106811
:1021D000D168536910F00F0F4FF0000553D003F092
:1021E000010601F4907737435FD0C20705D0CA05D6
:1021F00003D5226C42F001022264420705D5DA07BA
:1022000003D0226C42F002022264820705D5DA076D
:1022100003D0226C42F004022264020707D501F0C9
:102220002002324303D0226C42F008022264226C66
:10223000002A34D0800604D5880602D5204601F055
:10224000DDF920684069216CC0F38010090700D4D3
:1022500030B3204601F0BAF92068416949061BD520
:10226000416921F040014161A06BA8B15949016564
:10227000A06BFEF7F2FC002811D0A06B016D01B03D
:10228000BDE8F040084783060FD58B060DD52046E4
:10229000BDE8F84001F0B2B92046FFF793FFF8BD62
:1022A0002046FFF78FFF2564F8BD266B2023012E03
:1022B00053D1C60651D5CE064FD510685068009050
:1022C000506940062BD5A16B086840680004000CDB
:1022D000EAD0A68D8642E7D9E085C869B0F5807F4F
:1022E00018D0D06820F48070D0602068416921F057
:1022F000010141612068416921F04001416184F898
:102300003E3025632068C16821F01001C160A06BD8
:10231000FEF75AFCA08DE18D401A81B219E0A08D24
:10232000E18D401A81B2E08D0028BDD00029BBD0DC
:10233000D06820F49070D0602068426922F00102D9
:10234000426184F83E3025632068C26822F01002A2
:10235000C2602046FFF735FFF8BD05062BD50D06F8
:1023600029D594F83D002128F6D1A068B0F5805F0A
:1023700001D12069B0B1206A411C21622168007836
:102380004860E08C401E0004000CE084E4D120682A
:10239000C16821F08001C1602068C16841F040013E
:1023A000C160F8BD206A0088C0F308005060206A50
:1023B000801C2062E5E74006F3D54806F1D5D168D8
:1023C000204621F04001D16084F83D3000F0DDF876
:1023D000F8BD0000BD35000870B5040004D094F8C5
:1023E0003D00002510B106E0012070BD84F83C508E
:1023F000204600F023F8242084F83D002068C168BE
:1024000021F40051C160204601F054F920680169AF
:1024100021F4904101612068416921F02A01416164
:102420002068C16841F40051C1602564202084F80F
:102430003D0084F83E00002070BD00002DE9F04F03
:1024400087B0064614216846FEF744F84848DFF88E
:102450001CC133680024464910380222032507278F
:102460004FF000694FF4806A634542D10B6843F432
:1024700000330B60096801F400310591016841F0F7
:1024800001010160006802AB00F00100059004202A
:10249000CDE90002DFF8DCB083E8B0009046694681
:1024A0005846FEF729FD0820CDE9000802AB0120BF
:1024B00083E8A10069465846FEF71EFD2F4D2E48C1
:1024C0002860C5E90194C5E9034A6C61AC61EC611F
:1024D0002C6228466C62FEF7A5FC08B1FEF75FF996
:1024E000B563002205212620AE63FFF74DFA2620B2
:1024F00037E0DFF88CC0634535D10B6843F48023A7
:102500000B60096801F480210591016841F0040124
:1025100001600068694600F0040005904FF44060D7
:102520008DE8B5001748FEF7E7FC144D12486035FA
:1025300060382860C5E90194C5E9034A6C61AC6163
:10254000EC612C6228466C62FEF76CFC08B1FEF769
:1025500026F9B563002205212720AE63FFF714FAA0
:102560002720FFF703FA07B0BDE8F08F00440040D2
:102570004038024000000240886002401C060020F3
:10258000004800400008024070477047FEE7000026
:102590000148FEF703BE0000CC0300200148FEF70F
:1025A0005ABE0000CC0300200148FEF7F7BD000032
:1025B000200400200148FEF74EBE00002004002049
:1025C0000148FEF7EBBD0000740400200148FEF74F
:1025D00042BE00007404002038B5806B002190F8E2
:1025E0003D202B4B46F2A8141B68B3FBF4F3C3EB5E
:1025F000C30303EB830300933BB15B1E00930368AB
:102600001B689B0505D5009BF6E7036C43F0200390
:102610000364436B03B1D963836B03B1D96303686C
:102620001C6824F480641C604185436B03B1196508
:10263000836B03B1196503681C6824F001041C60F6
:1026400090F83D402023602C0BD0282434EA02026D
:102650000FD080F83D3080F83E1000BFFEF713FF2A
:1026600038BD80F83D3080F83E100164FEF794FDDF
:1026700038BD0268136843F00103136002681368F1
:1026800043F480631360016380F83D40E6E7000097
:102690004C00002070B5044690F83D0094F83E10C0
:1026A000102901D0402906D1222804D121680A68C6
:1026B00022F400620A60282131EA00024FF000058E
:1026C0004FF0200626D021684968090505D4602806
:1026D00003D084F83D6084F83E502563206841684B
:1026E000090537D5416821F400614160606B90F8BD
:1026F00035203C49012A11D00165606BFEF7ADFA27
:1027000038B32068016821F00101016084F83D6060
:10271000606B1CE0256384F83D10DFE7A06B01656A
:10272000A06BFEF79AFAA0B120684169C943490637
:1027300005D40069616A0870606A401C60622068A4
:10274000016821F00101016084F83D60A06B016D1A
:10275000884710E094F83D10602910D04169C943C2
:10276000490605D40069616A0870606A401C6062AD
:102770002046FEF788FE206CC1071CD115E084F8C6
:102780003D6025644169C943490605D40069616A11
:102790000870606A401C60622068016821F00101D5
:1027A00001602046FEF7F8FCE5E7810703D4410706
:1027B00001D4000704D52068416821F4E06141603C
:1027C00094F83D00216C49070BD5282809D106480B
:1027D000E062256384F83D6084F83E502046FEF7B1
:1027E00017FF70BDD92500080000FFFF10B5C26AB1
:1027F000438D0168042B06D0438D032B08D0438DF5
:10280000022B1DD012E04A6822F480624A600CE07C
:102810004B6823F480634B60042A06D0022A04D05C
:1028200001680A6822F480620A6001680969426AE4
:102830001170416A491C4162418D491E418510BD9C
:10284000012A30D0102A2ED0042A30D0022A2ED0CD
:102850000A6842F400720A6001680969426A1170EC
:10286000416A491C4162428D521E428502681269CA
:102870000A70416A491C4162418D491E41850168C7
:102880004A6822F440724A60202180F83D1090F896
:102890003E200021402A80F83E100CD01221016316
:1028A000FEF7B7FE10BD0A6822F48062D3E70A681B
:1028B00042F48062CFE70163FEF7ADFE10BD000079
:1028C00038B590F83D10222914D1418D032912D931
:1028D00001680969426A1170416A491C4162418D6F
:1028E000491E4185418D032904D10068416821F4C6
:1028F0008061416038BDC26A022AFBD0012901D043
:102900000029F7D1274946F2A81300220968B1FB34
:10291000F3F101EB8101009101682023009C641E0A
:10292000009422D00C68A405F8D40C6824F48064C8
:102930000C6001684C6824F4E0644C60016809692B
:10294000446A2170416A491C4162418D491E41859A
:1029500080F83D3090F83E1080F83E2040291DD090
:1029600012210163FEF755FE38BD046C44F02004CB
:1029700004644C6824F4E0644C6001680969446AAA
:102980002170416A491C4162418D491E418580F890
:102990003D3080F83E20FEF776FD38BD0263FEF73D
:1029A0003AFE38BD4C00002010B5C26A90F83D10C8
:1029B00021290BD1418D51B1416A02680978116119
:1029C000416A491C4162418D491E418510BD202349
:1029D0000021082A13D0202A11D012F5803F0ED0F2
:1029E0000268546824F4E06454601122026380F8A1
:1029F0003E1080F83D3000BFFEF70CFE10BD0268AF
:102A0000546824F4E06454600268146844F4007468
:102A10001460016380F83D3090F83E2080F83E104D
:102A2000402AE9D1FEF7F8FD10BD000010B590F87E
:102A30003D1090F83E30C26A048DB4B1212903D014
:102A4000402B11D122290FD1418DE1B390F83E10D6
:102A5000402942D0416A026809781161416A491CE3
:102A60004162418D491E418510BD2129E8D12023B5
:102A70000021082A13D0202A11D012F5803F0ED051
:102A80000268546824F4E06454601122026380F800
:102A90003E1080F83D3000BFFEF7BCFD10BD02685F
:102AA000546824F4E06454600268146844F40074C8
:102AB0001460016380F83D3090F83E2080F83E10AD
:102AC000402AE9D100E002E0FEF7A6FD10BD006853
:102AD000416821F48061416010BDBDE8104000F004
:102AE000D3B8000078B590F83E50C26A036B90F8F6
:102AF0003D6000240168222E7AD1066D0EB9402D6A
:102B000076D0056D1DB90569B5F5404F09D0458DE5
:102B100005B3468D384D012E0ED0438D022B3AD091
:102B20005DE04A698A6900920A6842F480720A602C
:102B3000016D491C016578BDAA4213D10A6822F4CF
:102B400080620A6001684A68120503D50A6822F4A7
:102B5000806216E04A698A6900920A6842F400724B
:102B60000A6039E0082A10D0202A0ED0122B0AD091
:102B7000042A03D0022A01D0102AE7D10A6842F4BD
:102B800080620A6024E0012AE0D00A6822F48062B0
:102B90000A600168DEE7042A21D0022A1FD0102A29
:102BA0001DD00B6823F480630B6001680B6843F44D
:102BB00000630B6001684B681B0509D5AA4212D05F
:102BC000012A10D0082A0ED0102A0CD0202A0AD0B0
:102BD00001684A6989690091046578BD08E00B685D
:102BE00043F48063E5E74A6842F480524A60EFE7C5
:102BF000486988690090F0E70000FFFF90F83E10F8
:102C0000402910D00169B1F5804F19D0016DA9B3E9
:102C1000016D012910D1416C5FF0F10201F44071A6
:102C200042EAD11106E0016D0029416C05D0C9B21C
:102C300041F0010100680161704701F0FE01F9E710
:102C400090F83D102129416C09D0C9B241F0010131
:102C500002681161416B29B1C96B49B902E001F009
:102C6000FE01F5E7816B0029E6D0C96B0029E3D0AE
:102C70000068416841F4006141607047FFE7416CC2
:102C8000F02201F44071CBE710B590F83D10026DD1
:102C900022B3026D012A2FD0026D022A1DD12229F2
:102CA0002FD0428D0AB1212933D0428D002A14D170
:102CB000212912D101684A6822F4E0624A60016861
:102CC0000A6842F400720A6000210163202280F841
:102CD0003D2080F83E10FEF79FFC10BDC16C01291D
:102CE000816C02D0C1F3072108E00268C9B211610A
:102CF000016D891C016510BD816CC9B2026811614A
:102D000004E001680A6842F480720A60016D491C9F
:102D1000F0E7416A026809781161416A491C416221
:102D2000418D491E418510BD38B50C4690F83D20B7
:102D300000212825954302680B4605D05169916909
:102D4000009180F83C3038BD556825F480655560A9
:102D5000E243540700D50121120601D5828900E023
:102D6000028B80F83C3092B2FEF717FA38BD0000B3
:102D70002DE9F04190F83D40C26A002320261C4F07
:102D800001686FF48065082A01D0202A01D1282C1F
:102D900004D0212C16D04D61BDE8F081C7624A688D
:102DA00022F4E0624A6001684D6101680A6822F419
:102DB00080620A60036380F83D6080F83E30FEF771
:102DC00027FCE9E7C7622122026380F83D6080F8B2
:102DD0003E304A6822F4E0624A6001684D61016851
:102DE0000A6822F480620A60FEF719FDD4E7000049
:102DF0000000FFFFF8B590F83D60044600684168A8
:102E000021F4E0614160206800254169009101687A
:102E100041F0010101602068016821F480610160D6
:102E200020684168090520D5474F222E48D02A2E18
:102E300046D0616B096849686185618D19B1216C63
:102E400041F004012164416821F400614160606B3C
:102E5000FDF715FF012808D0606B0765606BFDF773
:102E6000FCFE10B1606B016D8847608D08B320686F
:102E70004169C943490708D40069616A0870606AFA
:102E8000401C6062608D401E608520684169C943B6
:102E9000490608D40069616A0870606A401C606273
:102EA000608D401E6085608D18B1206C40F004007C
:102EB0002064206C00B32046BDE8F840FFF7EABB71
:102EC000A16B096849686185618D19B1216C41F078
:102ED00004012164416821F400614160A06BFDF7A9
:102EE000CEFE0128C1D0A06B0765A06BFDF7B5FE33
:102EF0000028BAD0A06BB6E72A2E06D12563282079
:102F000084F83D002046FEF789FC94F83D1020200F
:102F100028290DD0216B222901D0222E07D125632B
:102F200084F83D0084F83E502046FEF777FCF8BD5B
:102F30000649E162256384F83D0084F83E5020464E
:102F4000FEF766FBF8BD0000D92500080000FFFF72
:102F50007FB50024284800940194029425490394E5
:102F6000C0E90014012505618460057680F82040E1
:102F70002249C0E90A140526C661C46080F83040C1
:102F80004561FDF77BFD08B1FDF709FCCDE9004582
:102F9000694619480294FDF729FC08B1FDF7FFFBCB
:102FA0000220CDE9005069461348FDF71FFC08B127
:102FB000FDF7F5FB04240320CDE9004069460E48E7
:102FC000FDF714FC08B1FDF7EAFBCDE900646946A2
:102FD0000948FDF70BFC08B1FDF7E1FB0620CDE940
:102FE000000669460448FDF701FC002801D0FDF702
:102FF000D6FB7FBD00200140240300200100000F0C
:10300000074910B5054808600846FDF7B7FD0028D8
:1030100003D0BDE81040FDF7C2BB10BD0030024038
:10302000380000201D4808B5016841F40011016016
:10303000016801F400110091016841F48001016010
:103040000068002200F48000009005210C20FEF7AB
:103050009BFC0C20FEF78AFC002205210D20FEF7C8
:1030600093FC0D20FEF782FC002205210F20FEF7C5
:103070008BFC0F20FEF77AFC002205211020FEF7C2
:1030800083FC1020FEF772FC002205213820FEF799
:103090007BFCBDE808403820FEF768BC30380240B1
:1030A00010B504490448FDF77CFB0249491E08702D
:1030B00010BD0000C9000020B400002030B5C7B02A
:1030C0000025429542A8439500F0FDFB4B4C206340
:1030D000449544A8459500F0F6FB494D60630DF119
:1030E000A80C95E80F008CE80F0000212AA800F03A
:1030F000D7FB1035A06195E80F000DF1B80C103D1D
:103100008CE80F0000212EA800F0CAFB2035E061FA
:1031100095E80F000DF1C80C203D8CE80F00002150
:1031200032A800F0BDFB3035206295E80F000DF1AC
:10313000D80C303D8CE80F00002136A800F0B0FB21
:103140004035606295E80F000DF1E80C403D8CE8D9
:103150000F0000213AA800F0A3FB5035A06295E8CB
:103160000F003EAD85E80F0000213EA800F098FB5F
:103170002349E0621C2260316846FDF779F900219D
:10318000684600F0A8FB1E4920601C227C3107A87D
:10319000FDF76EF9002107A800F09DFB184960605B
:1031A0001C2298310EA8FDF763F900210EA800F04B
:1031B00092FB1349A0601C22B43115A8FDF758F901
:1031C000002115A800F087FB0D49E0601C22D031DA
:1031D0001CA8FDF74DF900211CA800F07CFB084954
:1031E00020611C22EC3123A8FDF742F9002123A81D
:1031F00000F071FB606147B030BD000000000020AE
:10320000B048000870B586B014216846FDF762F931
:1032100028480024016841F080010160016801F044
:1032200080010591016841F004010160016801F02D
:1032300004010591016841F001010160016801F09C
:1032400001010591016841F00201016000681A4E18
:1032500000F002000590002241F201013046FDF726
:103260008FFF01250095CDE901546946304603944E
:10327000FDF742FE3E20CDE9000469463046029447
:10328000FDF73AFE4FF4404000900220CDE90104E2
:103290000920CDE9034069460848FDF72DFE2803C3
:1032A000CDE90005CDE9025469463046FDF724FE1C
:1032B00006B070BD303802400008024000040240F1
:1032C0000D4810B50B4901600C49416000210222F4
:1032D000C0E902125203C0E904218161C1610162A7
:1032E000FEF7D2F8002803D0BDE81040FDF757BA2A
:1032F00010BD000000540040CC030020A086010057
:103300000D4810B50B4901600C49416000214FF494
:1033100080428160C0E9031241618161C161016243
:10332000FEF7B2F8002803D0BDE81040FDF737BA29
:1033300010BD00000058004020040020A0860100BD
:103340000D4810B50B4901600C49416000214FF454
:1033500080428160C0E9031241618161C161016203
:10336000FEF792F8002803D0BDE81040FDF717BA29
:1033700010BD0000005C004074040020A086010025
:10338000094810B5074901600021416040F6FF710E
:103390008160FEF745FA002803D0BDE81040FDF734
:1033A000FEB910BD00300040880500200C4810B563
:1033B0000A4901604FF4E1314160002181600C2233
:1033C000C160C0E904128161C161FFF705F80028FE
:1033D00003D0BDE81040FDF7E2B910BD0044004045
:1033E000940500200C4810B50A4901604FF4E13102
:1033F0004160002181600C22C160C0E9041281613A
:10340000C161FEF7E9FF002803D0BDE81040FDF7D9
:10341000C6B910BD00480040D8050020FEE7FEE711
:10342000012000F031FAFBE7012000F02DFAFBE764
:10343000012000F029FAFBE7012000F025FAFBE764
:10344000012000F021FAFBE7012000F01DFAFBE764
:1034500010B5502080F31188BFF34F8FBFF36F8FEB
:1034600001F0DAF818B104494FF0805008600020EC
:1034700080F3118810BD000004ED00E010B592B09B
:1034800030216846FDF726F814210CA8FDF722F834
:1034900009200090012002240190CDE90504800557
:1034A000079008200890F020CDE9090404200B9033
:1034B0006846FEF7B9FB08B172B6FEE70F20CDE90A
:1034C0000C0400200E904FF4A0500F904FF4805049
:1034D000109003210CA8FEF789FA002801D072B6DB
:1034E000FEE712B010BD70470148FEF7AABD00000C
:1034F000DC060020F0B50268254C264D264E274FED
:10350000274B4FF0804CA04209D0604507D0A8421D
:1035100005D0B04203D0B84201D0984204D122F085
:10352000700E4A6842EA0E02A0421BD0604519D0D4
:10353000A84217D0B04215D0B84213D0984211D04B
:10354000184DA8420ED0184DA8420BD0174DA842D6
:1035500008D0174DA84205D0164DA84202D0164DEE
:10356000A84203D122F44075CA682A434D6922F06B
:1035700080022A4302608A68C2620A688262A042AC
:1035800001D0984201D10969016301214161F0BD77
:10359000000001400004004000080040000C004012
:1035A0000004014000400140004401400048014047
:1035B00000180040001C00400020004010B5806B47
:1035C0000021C185C184FEF7FDFD10BD0168CA68F8
:1035D00022F49072CA6001684A6922F001024A61CD
:1035E000016B012904D10168CA6822F01002CA6087
:1035F000202180F83E1000210163704708B590F843
:103600003E10222901D0022008BD82684FF4805369
:103610009A4201D1016921B1816A9A421BD04AB113
:103620000AE00268816A5268C2F308020A80816A6D
:10363000891C08E0026972B10268526802F07F02D8
:103640000A70816A491C8162C18D491E0904090CF6
:10365000C18503D019E002685268F1E70168CA68C1
:1036600022F02002CA600168CA6822F48072CA602F
:1036700001684A6922F001024A61202180F83E1067
:10368000016B012903D0FEF77FFF002008BD002158
:1036900001630168CA6822F01002CA6001680A6802
:1036A000D20602D50A6849680091818DFEF789FD2E
:1036B000EBE700002DE9F041044600680169E2688B
:1036C00021F44051114301612169A068E269084376
:1036D0006169114322680843D16849F20C63994338
:1036E0000143D16020684169A26921F4407111430E
:1036F000416137492068884202D03649884202D168
:10370000FEF74AFA01E0FEF72FFA0246E369642069
:103710003221B3F5004F02EBC20303EB02136268E0
:103720002BD09200B3FBF2F5B5FBF0F5B3FBF2F64C
:103730006FF018077D4306EB8505B3FBF2F601EB4E
:103740000515B5FBF0F5B6FBF0F605F0F00505EB59
:103750000615B3FBF2F6B3FBF2F2B2FBF0F27A43DA
:1037600006EB820201EB0211B1FBF0F000F00F005A
:10377000216828448860BDE8F0815200B3FBF2F66E
:10378000B6FBF0F6B3FBF2F7B3FBF2F56FF0180CF3
:1037900006FB0CF607EB860601EBC606B5FBF0F55B
:1037A000B6FBF0F62D0106F0F80605EB4605B3FB77
:1037B000F2F6B3FBF2F2B2FBF0F202FB0CF206EB14
:1037C000820201EBC201B1FBF0F000F00700CFE78D
:1037D00000100140001401400148FEF7F5BC000054
:1037E000940500200148FEF7EFBC0000D80500203A
:1037F000024801210170007870470000B0000020ED
:1038000001207047002070470248012101700078B4
:1038100070470000B000002000207047FEE7090755
:10382000090E002804DB00F1E02080F80014704746
:1038300000F00F0000F1E02080F8141D7047FEF743
:1038400025F8FFF71BFEFFF7DDFCFFF7EBFBFFF7AB
:103850007FFBFFF735FDFFF753FDFFF771FDFFF726
:10386000A5FDFFF7BFFDFFF78BFDFFF7C9FBFFF7D6
:1038700017FCFFF723FC00F00EF8FEE701460020DE
:10388000842900D0C81C704710B500B9012000F091
:10389000B3FB002010BD10B500F0FAFB002010BDF6
:1038A00038B5D0E9011204683AB1C3682BB10020E1
:1038B0000090204600F0E8FC38BD2046BDE83840C6
:1038C000002200F0BDBC41684FF0010009B100F0DA
:1038D000AABC00F09DBC7FB50D4604464169B0F915
:1038E000080081B1A16971B1FFF7C8FFD4E90512E1
:1038F0008DE80700D4E900102B46226900F053FE42
:10390000039004B070BDFFF7B9FF03A9CDE9000132
:10391000208A2B4682B2D4E9001000F017FE01285D
:1039200001D00020EDE70398EBE700002DE9F0411E
:10393000184C0F46054666692068001D00F098FA8D
:1039400038B9206890F82C1001208840A169814383
:10395000A161681C07D137B12168BDE8F0410E486C
:10396000091D00F0C9BA20683544B5424560216898
:1039700005D2A068BDE8F041091D00F0A5BA606855
:10398000091D00F0A1FA206B854200D22563BDE835
:10399000F081000050000020000800202DE9F041D7
:1039A000054600F0B5FA2E4C2069401C20612068C5
:1039B0002C4F10B1E06940B32DE02560206901284B
:1039C00029D1002606EB860007EB800000F06EFA96
:1039D000761C072EF6D323488C3000F067FA214876
:1039E000A03000F063FA1F48B43000F05FFA1D48C1
:1039F000C83000F05BFA1B48DC3000F057FA194879
:103A00008C3060601430A06005E02068E96AC06A0C
:103A1000884200D82560E06A401CE062E96A012023
:103A2000A26988401043A06101EB810007EB800090
:103A3000291D00F061FA00F08BFAE06900280CD033
:103A40002068E96AC06A884207D207494FF080506F
:103A50000860BFF34F8FBFF36F8FBDE8F0810000A8
:103A6000500000202407002004ED00E02DE9F04183
:103A7000856B174604460026026C82B1C7B1E06828
:103A8000FCF7B1FCE168206C091AE1602268914200
:103A900002D26168081AE060022F16D017E0206891
:103AA000A8B9606800F01CFE0646002060600EE0C9
:103AB000A068FCF798FC216CA0680844A0606168CD
:103AC000884204D32068A06001E005B16D1E6D1C22
:103AD000A5633046BDE8F08110B5044690F851006A
:103AE00058B101280CD002280FD0502080F3118843
:103AF000BFF34F8FBFF36F8FFEE7206B00F03CFAF0
:103B00002046BDE8104000F037BA10BD10484FF411
:103B10007051420706D0C01D0D4920F00700411A20
:103B2000C1F570510B4A00230144C2E90003083972
:103B3000103A21F0070111604B600B600B1AC0E9CD
:103B4000001393604FF000405360D0607047000056
:103B5000140800209C000020144E154CA6F1C80744
:103B60004FF08058DFF84C9012E000BF00F0D0F921
:103B7000F068C568281D00F07BF92069401E2061AF
:103B8000E068401EE06000F0E3F92846FFF7A4FF7C
:103B9000E0680028EAD138680128F9D9C9F800801E
:103BA000BFF34F8FBFF36F8FF2E70000EC070020E9
:103BB0005000002004ED00E0002807D00021416003
:103BC00001600B460A46C16000F0D6BB7047034651
:103BD000009829B10260C0E90F31012100F088BBD3
:103BE0000060F8E72DE9F0479A46DDE9098481464F
:103BF0006FF00303206B03EB82021044089D20F05A
:103C00000706700707D0502080F31188BFF34F8F4D
:103C1000BFF36F8FFEE723180A5C83F834200A5C39
:103C200012B1401C1028F6D3002784F84370072DEA
:103C300000D30625E562C4E91157201D00F041F9C3
:103C400004F1180000F03DF92461C5F10700646239
:103C5000A061E76484F8507052464946304600F04F
:103C6000F5F82060B8F1000F01D0C8F80040BDE8B9
:103C7000F087000030B5114900E011460A68824221
:103C8000FBD34B685C18844203D1406818444860F9
:103C9000084643681C18944209D1084C103C24681B
:103CA000A24209D052681A4442600A68126802604F
:103CB000814200D0086030BD0460F9E79C0000201C
:103CC00006484168096829B14168C968C9684968F6
:103CD000016370474FF0FF31FAE700005000002009
:103CE00008484068401C4FF0500080F3118804D011
:103CF000BFF34F8FBFF36F8FFEE7BFF34F8FBFF35D
:103D00006F8FFEE7A40000202DE9F041044600F08B
:103D1000FFF894F9455004F1240609E0606A48B1BF
:103D2000304600F029FD08B100F094F96D1E6DB227
:103D3000002DF3DC4FF0FF3684F8456000F008F901
:103D400000F0E6F894F9445004F1100709E0206906
:103D500048B1384600F010FD08B100F07BF96D1E47
:103D60006DB2002DF3DC84F84460BDE8F04100F052
:103D7000EFB800002DE9F0410546002700F0BEF93C
:103D8000314E306808B9FFF7C1FEF06805424BD1EB
:103D9000C5B3083568070ED005F00700C0F108006C
:103DA0000544680707D0502080F31188BFF34F8F78
:103DB000BFF36F8FFEE72DB37068854234D8224879
:103DC000103001460C6801E020460C466168A942AB
:103DD00002D221680029F7D131688C4224D00768CB
:103DE0002168016060680837411B10290FD96019EC
:103DF000420708D0502080F31188BFF34F8FBFF3E4
:103E00006F8FFEE710E041606560FFF733FF616888
:103E10007068401A7060B268904200D2B060F0687A
:103E200001430020C4E9000100F0E0FC780707D05E
:103E3000502080F31188BFF34F8FBFF36F8FFEE7E1
:103E40003846BDE8F08100008C00002010B5031F4B
:103E50004FF080741C601B1F21F001011960191FB5
:103E6000024B0B60143940380A6010BDE13C000879
:103E7000D0E9013201699A60D0E901235A604A68A9
:103E8000824201D182684A60002202610868401EB5
:103E90000860086870470000034B036003F154009A
:103EA0000860802010607047D000002000F10801F9
:103EB0004FF0FF32C0E90112C160016100210160D1
:103EC000704700210161704730B50B685A1C02D061
:103ED00000F1080202E0026904E022465468256805
:103EE0009D42FAD953684B6099608A6051600861BD
:103EF0000168491C016030BD42684A6093688B606C
:103F000093685960916008610168491C01607047BD
:103F1000502080F31188BFF34F8FBFF36F8F0A4992
:103F20004868401C486001280CD10848006810F01F
:103F3000FF0F07D0502080F31188BFF34F8FBFF3DE
:103F40006F8FFEE770470000A400002004ED00E042
:103F50000849486828B1401E486001D180F31188A3
:103F60007047502080F31188BFF34F8FBFF36F8FDE
:103F7000FEE70000A400002070B5002827D0144DF3
:103F8000A0F108046168E868014207D1502080F37D
:103F90001188BFF34F8FBFF36F8FFEE722683AB1EE
:103FA000502080F31188BFF34F8FBFF36F8FFEE770
:103FB0008143616000F0A2F8606869680844686045
:103FC0002046FFF757FEBDE8704000F00FBC70BD03
:103FD0008C0000204FF0E020002101618161054943
:103FE0004FF47A720968B1FBF2F1491E4161072171
:103FF000016170474C00002010B5020014D00F483A
:10400000806B38B1502080F31188BFF34F8FBFF31E
:104010006F8FFEE700F072F800211046FFF786FC74
:1040200000F0E4FB002807D105494FF080500860FC
:10403000BFF34F8FBFF36F8F10BD00005000002003
:1040400004ED00E002498A6A0260496941607047F4
:1040500050000020014901204862704750000020B4
:1040600010B50C4650B1094909681831FFF72CFF0B
:104070002046BDE810400121FFF758BC502080F3D6
:104080001188BFF34F8FBFF36F8FFEE75000002002
:1040900010B586B00024039405AA04A903A80494CB
:1040A000FFF7FAFEDDE903010094CDE901100023DA
:1040B0000EA11048059A00F076FA0F4900284863CF
:1040C00011D0502080F31188BFF34F8FBFF36F8F53
:1040D0004FF0FF3008630120C8614C6106B0BDE8B5
:1040E000104000F041B806B010BD000049444C45F6
:1040F00000000000593B0008500000200248816B7E
:10410000491C816370470000500000201448816BF7
:1041100011B1012141627047002141628169B1FA08
:1041200081F1C1F11F0101EB81020E4951F82230EA
:104130006BB101EB820101F108034A6852684A60E1
:104140009A4201D152684A60D1680160704750209C
:1041500080F31188BFF34F8FBFF36F8FFEE700002E
:1041600050000020240700201CB526490878019043
:10417000FF20087008788DF800009DF800009DF879
:10418000002000F0F000904207D0502080F311880A
:10419000BFF34F8FBFF36F8FFEE79DF800001A4B00
:1041A00000F0500018700720986005E09DF800208E
:1041B00052008DF80020401E9DF800201206F5D414
:1041C0009860032807D0502080F31188BFF34F8FE9
:1041D000BFF36F8FFEE74FF440709860019808704E
:1041E0000A48016841F470010160016841F07041C2
:1041F0000160FFF7EFFE00205860FCF723F8002075
:104200001CBD000000E400E0A400002020ED00E060
:1042100010B502460021012000F012F80446FFF715
:10422000CBFC204610BD38B50B460022009011464D
:10423000012000F029F80446FFF7BEFC204638BDF7
:10424000F8B517460E46050014D0DEB105FB06F0A2
:104250004830FFF78FFD04000AD0002084F84600A4
:1042600004F148023B46314628460094FFF7AFFC74
:104270002046F8BD502080F31188BFF34F8FBFF365
:104280006F8FFEE70020E3E738B5049D18B153B106
:10429000CAB181B120E0502080F31188BFF34F8F65
:1042A000BFF36F8FFEE7502080F31188BFF34F8F6D
:1042B000BFF36F8FFEE7502080F31188BFF34F8F5D
:1042C000BFF36F8FFEE739B1502080F31188BFF341
:1042D0004F8FBFF36F8FFEE748241C46012384F8FD
:1042E00046302B460094FFF772FC204638BD000094
:1042F00070B50D46040025D0FFF70AFED4E90F2063
:10430000216802FB001161600021A1632168A160A6
:104310000A46D4E90F01401E00FB0121E16021465D
:104320004FF0FF3001F8440F487004F110008DB1D8
:10433000FFF7BCFD04F12400FFF7B8FDFFF708FE0E
:10434000012070BD502080F31188BFF34F8FBFF361
:104350006F8FFEE721690029F0D000F00DFA0028E8
:10436000ECD004494FF080500860BFF34F8FBFF38B
:104370006F8FE3E704ED00E02DE9FF4782B01D46B3
:104380008A464FF00008040003D0BAF1000F08D0AD
:1043900011E0502080F31188BFF34F8FBFF36F8F70
:1043A000FEE7206C38B1502080F31188BFF34F8FA7
:1043B000BFF36F8FFEE7022D0AD1E06B012807D013
:1043C000502080F31188BFF34F8FBFF36F8FFEE74C
:1043D00000F014F93F4F4FF000094FF0805648B9F4
:1043E000049838B1502080F31188BFF34F8FBFF38A
:1043F0006F8FFEE7FFF78CFDA06BE16B884207D360
:10440000022D05D00498D0B1B8F1000F1AD01EE0EB
:104410002A4651462046FFF729FB616A19B104F18B
:10442000240000F0A9F920B13E60BFF34F8FBFF325
:104430006F8FFFF78DFD012006B0BDE8F087FFF715
:1044400087FD22E06846FFF7FDFD4FF00108FFF70A
:104450007FFDFFF753FEFFF75BFD94F94400401C1E
:1044600001D184F8449094F94500401C01D184F8AE
:104470004590FFF76DFD04A9684600F02DF830B1B6
:104480002046FFF741FC00F0B1F90020D4E7FFF728
:104490003FFDA06BE16B884213D1FFF759FD04F19A
:1044A00010000499FFF7DCFD2046FFF72DFC00F01B
:1044B0009DF900289ED13E60BFF34F8FBFF36F8FF1
:1044C00098E7FFF745FD2046FFF71EFC00F08EF948
:1044D00090E7000004ED00E02DE9F0410C460500F6
:1044E00011D0C4B1FFF714FD174B5A696E682068EC
:1044F000911B471C17D02F689B6A9F4219D0964288
:1045000017D8012410E0502080F31188BFF34F8F9B
:10451000BFF36F8FFEE7502080F31188BFF34F8FFA
:10452000BFF36F8FFEE70024FFF712FD2046BDE8C2
:10453000F081884205D9401A20602846FFF782FDA5
:10454000F1E700202060DCE7500000202DE9FF5F4C
:104550008346DDE90E87994616468A469000FFF7A6
:1045600009FC05001CD05420FFF704FC040014D003
:104570000020256384F85100CDE90240CDE9008791
:104580004B46324651465846FFF72CFB2046FFF774
:1045900005FA012004B0BDE8F09F2846FFF7ECFCC7
:1045A0004FF0FF30F6E7F0B585B0DDE90B640A9D0A
:1045B000A6B1DCB1542700972663022684F8516027
:1045C000002604AFCDE90246CDE90057FFF70AFB0C
:1045D0002046FFF7E3F9049805B0F0BD502080F3C2
:1045E0001188BFF34F8FBFF36F8FFEE7502080F32A
:1045F0001188BFF34F8FBFF36F8FFEE70548C16986
:1046000019B1806B18B1002070470120704702205B
:1046100070470000500000202DE9F0412E4C00278B
:10462000A06B40B1206A401C2062606A00B1012783
:104630003846BDE8F0816669761C666113D1606812
:10464000006838B1502080F31188BFF34F8FBFF35B
:104650006F8FFEE76068A1686160A060A06A401C7F
:10466000A062FFF72DFB206BDFF87080864209D334
:104670006068006880B16068C068C5686868864224
:104680000DD220632068C06A00EB800158F8210039
:104690000128CAD90127C8E74FF0FF30F1E7281DEC
:1046A000FFF7E6FBA86A18B105F11800FFF7E0FB79
:1046B000E86A0121A26981401143A16100EB8001F8
:1046C00008EB8100291DFFF717FCE86A2168C96A19
:1046D0008842CDD30127CBE75000002024070020DB
:1046E00070B504004FF0000140D0214D286884428D
:1046F00007D0502080F31188BFF34F8FBFF36F8F27
:10470000FEE7A06C38B1401EA064636CE26A9A4276
:104710002CD040B12AE0502080F31188BFF34F8F96
:10472000BFF36F8FFEE7201DFFF7A2FB114A0121A7
:1047300050B9E06A00EB800352F8233023B9AB692B
:1047400001FA00F08343AB61606CE062C0F10700E6
:10475000A061E06AAB6981401943A96100EB800068
:1047600002EB8000211DFFF7C7FB0121084670BD49
:1047700050000020240700202DE9F041C068C468E3
:10478000ACB104F118000746FFF772FB154DA86B9A
:104790000126A0B139461448FFF7AEFBE06A29684C
:1047A000C96A88421CD901206E62BDE8F0815020A0
:1047B00080F31188BFF34F8FBFF36F8FFEE7201D8B
:1047C000FFF756FBE16AAA6906FA01F01043A861F7
:1047D00001EB81000449B43901EB8000211DDBE7C6
:1047E0000020E2E750000020D80700202DE9F04724
:1047F0002C4D00242746A86B38B1FFF789FBA86B26
:10480000401EA863A86B40B146E0502080F3118899
:10481000BFF34F8FBFF36F8FFEE72969224E012050
:10482000D1B3A6F1B40980463068E8B1F068C46835
:1048300004F11800FFF71CFB201DFFF719FBE06ACD
:10484000AA6908FA00F11143A96100EB800109EBA4
:104850008100211DFFF750FBE06A2968C96A884280
:10486000E2D3C5F82480DFE70CB1FFF729FA2C6A00
:1048700044B14646FFF7D0FE00B16E62641EF9D126
:1048800000202862686A38B10849012738070860A3
:10489000BFF34F8FBFF36F8FFFF75AFB3846BDE86A
:1048A000F087000050000020D807002004ED00E051
:1048B00010000000020000000000000000000000E6
:1048C00010000000020000000000000000000000D6
:1048D00010000000020000000000000000000000C6
:1048E00010000000020000000000000000000000B6
:1048F00010000000020000000000000000000000A6
:104900001000000002000000000000000000000095
:10491000144A0008213400080000000000000000D4
:10492000800000000000000000000000D8490008DE
:1049300029340008FDFF0000000000008000000096
:104940000000000000000000E449000831340008C5
:10495000FDFF0000000000008000000000000000DB
:1049600000000000F049000839340008FDFF000095
:1049700000000000800000000000000000000000B7
:10498000FC49000841340008FDFF00000000000061
:10499000800000000000000000000000084A00083D
:1049A00049340008FDFF0000000000008000000006
:1049B000000000000000000000061016000610169F
:1049C00000000000000000000102030406070809BF
:1049D00000000000010203046D795461736B3032F2
:1049E000000000006D795461736B303300000000EB
:1049F0006D795461736B3034000000006D7954613F
:104A0000736B3035000000006D795461736B303684
:104A10000000000064656661756C745461736B001E
:104A2000404A000800000020D0000000C00100083B
:104A3000104B0008D0000020B0490000DC01000845
:104A40000000000000000000000000000000000066
:104A50000000000000000000000000000000000056
:104A60000000000000000000000000000000000046
:104A70000000000000000000000000000000000036
:104A80000100000010000000000000000024F400FD
:104A90000000000000000000000000000000000016
:104AA0000000000000000000000000000000000006
:104AB00000000000000000000000000000000000F6
:104AC00000000000000000000000000000000000E6
:104AD00000000000000000000000000000000000D6
:104AE0000000000000000000AAAAAAAA000000001E
:104AF00001000000F13700080938000805380008F7
:104B0000193800080138000800000000000000000B
:040000050800018569
:00000001FF
